:020000040800F2
:10000000100500209D0100083B160008D5140008CB
:1000100039160008D5020008E919000800000000A0
:100020000000000000000000000000003F16000873
:1000300043030008000000003D1600086516000894
:10004000B7010008B7010008B7010008B7010008B0
:10005000B7010008B7010008B7010008B7010008A0
:10006000B7010008B7010008B7010008D90200086D
:10007000B7010008B7010008B7010008B701000880
:10008000B7010008B7010008B7010008B701000870
:10009000B7010008B7010008B7010008B701000860
:1000A000B7010008B7010008B7010008B701000850
:1000B000B7010008B7010008B7010008B701000840
:1000C000B7010008B7010008B7010008B701000830
:1000D000B7010008B7010008B7010008B701000820
:1000E000B7010008B7010008B7010008B701000810
:1000F000B7010008B7010008B7010008B701000800
:10010000B7010008B7010008B7010008B7010008EF
:10011000B7010008B7010008B7010008B7010008DF
:10012000B7010008B7010008B7010008B7010008CF
:10013000B7010008B7010008B7010008B7010008BF
:10014000B7010008B7010008B7010008B7010008AF
:10015000B7010008B7010008B7010008B70100089F
:10016000B7010008B7010008B7010008B70100088F
:10017000B7010008B7010008B7010008000000003F
:10018000B7010008B7010008DFF80CD000F090F8C4
:1001900000480047551A000810050020064880470F
:1001A00006480047FEE7FEE7FEE7FEE7FEE7FEE75C
:1001B000FEE7FEE7FEE7FEE70117000889010008F9
:1001C0002DE9F05F0546002092469B46884606468C
:1001D000814640241BE0284641464746224600F01F
:1001E00057F853465A46C01A914110D31146184643
:1001F000224600F03EF82D1A67EB01084F462246D2
:100200000120002100F035F817EB00094E41201EB7
:10021000A4F10104DFDC484631462A464346BDE8E6
:10022000F09FD2B201E000F8012B491EFBD27047CB
:100230000022F6E710B513460A4604461946FFF7B2
:10024000F0FF204610BD30B50B46014600202022AD
:10025000012409E021FA02F59D4205D303FA02F5D3
:10026000491B04FA02F52844151EA2F10102F1DC33
:1002700030BD202A04DB203A00FA02F1002070474A
:100280009140C2F1200320FA03F3194390407047D4
:10029000202A04DB203A21FA02F00021704721FADB
:1002A00002F3D040C2F12002914008431946704742
:1002B000064C074D06E0E06840F0010394E80700B3
:1002C00098471034AC42F6D3FFF762FF301C0008A9
:1002D000501C0008FEE70000014800F063BA00BFB0
:1002E0006C00002001686FF00F0240F2FF3352FAF9
:1002F00081F2994318235F2AB2FBF3F203A388BF6C
:10030000043181659A5CC265084670470006101684
:100310000006101680B5D0F800C0DCF800E02EF41E
:10032000802ECCF800E0CCF80430806840280846E5
:1003300008BF1046CCF8080008BF0A46CCF80C20CD
:1003400080BD70477047000010B50A4C204600F091
:10035000B7F920460A2100F063F9204600F08AF838
:10036000054C00F57A71606004A001F08BFB002061
:10037000208010BD240000201800002025640D0AF4
:100380000000000078B50022009290F83C20012A7D
:1003900001D102216BE0012280F83C20D1F800E07D
:1003A0001FFA8EFCBEF10A0F4FEA4C0212FA8EF2CF
:1003B00004D303681E3A03F10C0402E0036803F15E
:1003C000100407252668954026EA050525608D68F6
:1003D00005FA02F225682A4322604A68062A05D8EF
:1003E00002EB820203F13401053A0BE002EB8204D6
:1003F0000C2A87BF03F12C01A4F1410203F1300163
:10040000A4F123021F240D6894400CFA02F225EA9D
:1004100004040C600E6832430A606549A1F541721C
:10042000934221D1BEF1120F04D10A6842F4800236
:100430000A6019E02EF00102102A15D10A68BEF1F7
:10044000100F42F400020A600ED1D149D14A096866
:10045000B1FBF2F101EB8101490001E000990139A2
:10046000009100990029F9D1002180F83C1008463C
:1004700001B070BD0068C06C70470000002842D019
:1004800010B50446006C30B9204600F099F8002001
:1004900084F83C006064206CC00636D4206C41F2C5
:1004A0000211444B8843023020644148016821F422
:1004B0004031016061680268114301602068416851
:1004C00021F4807141602169426842EA0121416062
:1004D000416821F040714160A16842681143416068
:1004E000816821F400618160E16882681143816064
:1004F000A16A826822F0706299428260826806D1A5
:1005000022F040510CE00120704701204CE01143E3
:100510008160816821F040518160E16A8268114305
:100520008160816821F002018160217E826842EA57
:100530004101816094F8202041686AB141F4006172
:100540001D4A4160416821F460414160616A02EBEB
:1005500041314268114301E021F400614160174AD2
:10056000C16A21F47001C162E16902EB0151C26A02
:100570001143C162816821F40071816094F83010E8
:10058000826842EA41218160816821F48061816052
:100590006169826842EA81210122816000206064F1
:1005A000216C62F301012164002184F83C1010BD2C
:1005B000042301400100000F00E0FFFF0000F0FFF6
:1005C00010B586B0044601A81421FFF731FE21685A
:1005D000714881421FD10021104A00F5604000910E
:1005E000536943F480735361536903F48073009338
:1005F000009B0091136843F001031360126802F03E
:1006000001020092009A03910321029102210191BB
:1006100001A900F049FA06B010BD00BF3038024011
:10062000F8B5044600680D468168490544BF8068F6
:100630005FEAC05039D400F009FB06466F1C206801
:100640000168890710D4002FF9D025B100F0FEFA17
:10065000801BA842F3D9002084F83C00206C40F0B5
:1006600004002064032028E06FF012010160216C77
:1006700041F400712164816811F0405F13D1217E43
:1006800089B9C16A11F4700F02D0806840050AD49C
:10069000206C20F480702064206CC0045EBF206C4D
:1006A00040F001002064002007E0002084F83C00B6
:1006B000206C40F020002064012001B0F0BD00005B
:1006C00081B00021009190F83C10012901D1022055
:1006D0005BE0012180F83C1001688A68D20711D1E3
:1006E0008A682C4B42F001028A60894A1268B2FB88
:1006F000F3F202EB420201E0009A013A0092009A02
:10070000002AF9D18A68D2073ED0026C40F2017308
:100710009A4302F5807202644A68520504D5026C5D
:10072000012363F30D320264026C0023D20444BF40
:10073000436C23F00603002280F83C2043646FF0F2
:10074000220008601448D0F80423D20603D0814266
:100750001AD1806811E081420ED0104A914207D030
:100760000F4A914210D1D0F80403C0060CD103E027
:10077000D0F80403C00607D4886810F0405F03D1A6
:10078000886840F080408860002001B0704700BF5A
:100790000C00002040420F000020014000220140D8
:1007A00000210140F8B50446002008210090584877
:1007B0000568D4E916603768814039420CD0226858
:1007C00013685B0708D5136823F004031360B16056
:1007D000616D41F00101616501218140394208D01C
:1007E00022685269120604D5B160616D41F00201C0
:1007F000616504218140394208D02268126892075D
:1008000004D5B160616D41F0040161651021814042
:10081000394217D020680268120713D5B160026808
:100820000168520306D4C9055EBF016821F00801C2
:10083000016001E0080301D4216C00E0A16C09B162
:1008400020468847E16D202000FA01F23A423BD071
:1008500020680368DB0637D5B26094F8353002684B
:10086000052B19D122F016020260426922F08002A3
:100870004261226C0AB9A26C1AB1026822F0080225
:1008800002603F208840B060012084F835000020DD
:1008900084F83400216D37E0016852030CD4C90597
:1008A0000ED4016821F010010160012084F83500A8
:1008B000002084F8340003E0080301D4616C00E0F8
:1008C000E16B09B120468847606D00B3606DC007D9
:1008D00019D005214FF4165084F83510B5FBF0F00F
:1008E00021680A6822F001020A60009A01328242FD
:1008F000009202D80A68D207F7D1012084F83500A7
:10090000002084F83400E16C09B120468847F8BD26
:100910000C0000202DE9F041044600F097F9002C6E
:100920004FD00546022084F83500002084F83400BA
:100930002168086820F00100086005E000F086F9F1
:10094000401B052840D821680868C007F6D1086810
:10095000394AD4E9013504F10C0800EA020C98E8A0
:10096000C101D4E9072E43EA0C032B431843636A01
:1009700030433843042B40EA080040EA020040EAD2
:100980000E0225D1D4E90BE042EA0E02BEF1000FBF
:1009900040EA0200086051F8140FA26A20F0030038
:1009A00040EA020040F0040C19D0B8F5005F28D0EE
:1009B000B8F1000F35D1022A36D0012A2BD09AB3D4
:1009C0000DE00120BDE8F08103252023032013E082
:1009D0000A6051F8140F20F0070040EA030C20468B
:1009E000C1F800C0FFF77EFCE16D3F220023012526
:1009F00002FA01F181600020636584F83550BDE89A
:100A0000F081032AEBD8012540230120DFE802F022
:100A1000020C0203F0E7AEF1C070B0FA80F04009BA
:100A200004E0032A04D3DAD1CEF300600028D6D044
:100A3000012540230120DFE73F8010F0B0B50446D8
:100A400090F8340001282CD00120A56D84F83400E2
:100A500094F83500012821D1022084F835000020C7
:100A600060652046FFF756FCE06D3F2101FA00F07B
:100A7000A8602068016841F016010160416941F0F9
:100A800080014161216C19B1016841F008010160E8
:100A9000016841F0010101600020B0BD002084F830
:100AA00034000220B0BD00002DE9F84F5B4A4FF042
:100AB000080A4FF0010B4FF000084FF0000E904273
:100AC000574A08BF4FF0070A02444FEAB223072BE8
:100AD00038BF4FEAB22A0022102A08BFBDE8F88FBB
:100AE0000B680BFA02F6334200F091804B6843F03A
:100AF0001004122C13D16FF003040EF01C030F2707
:100B000004EA520507FA03FC05442C6A24EA0C0C9B
:100B10000C6904FA03F343EA0C032B624B680327C6
:100B200003F00305122B07FA08F4076805FA08F525
:100B30006FEA040C27EA040747EA0507076013D8A1
:100B40000BFA03F414F0061F0ED08468CD6804EA93
:100B50000C0405FA08F52C438460C3F300144568BF
:100B60009440B5432C434460C4688D68DB0004EABC
:100B70000C0705FA08F547EA0507C76047D50023C3
:100B8000284C0EF00C050093284BA4461F461B680A
:100B900043F480433B603B6803F48043009322F0BE
:100BA00003032344224C009FA1461F590F24AC404D
:100BB0000AFA05F5A7432F4343F80970DCF8003023
:100BC0004D6843EA0607EC0358BF23EA0607CCF852
:100BD0000070AC03DCF8043043EA060758BF23EA90
:100BE0000607CCF80470EC02DCF8083043EA06078C
:100BF00058BF23EA06070C4BCCF80870AD021C4620
:100C00001B6843EA060758BF23EA0607276008F176
:100C100002080EF1040E01325EE700BF001C024024
:100C20000000FEBF003C01400C3C01404438024043
:100C300008FCFFFF42690A408A4208BF090481613B
:100C40007047002A08BF09048161704705480068A1
:100C5000704700BF1F48034900780A6810440860C5
:100C6000704700BF0C01002080B50B48016841F4BB
:100C700000710160016841F480610160016841F424
:100C800080710160032000F06FF8002000F006F88A
:100C900000F022F8002080BD003C024070B50D4EEF
:100CA00004464FF47A713078B1FBF0F08849096856
:100CB000B1FBF0F000F0ACFA01250F2C08D838B9E0
:100CC0004FF0FF3021460022002500F02FF874601D
:100CD000284670BD0400002082B000200B4901901E
:100CE0004A6842F480424A604A6802F480420192B3
:100CF000019A0090086840F080500860086800F091
:100D000080500090009802B0704700BF4038024009
:100D1000002808DB00F01F010122400902FA01F15E
:100D2000014A42F82010704700E100E080B5144B02
:100D30001B68C3F3022CBCF1030E8CF007034FF0C9
:100D4000FF3C38BF4FF0000E042B28BF04230CFAE1
:100D500003F399430CFA0EF301FA0EF19A4311438F
:100D6000BDE8804000F056BE05494FF6FF030A6813
:100D70001A4060F30A22034810430860704700BF1E
:100D80000CED00E00000FA052DE9F041002800F02C
:100D90008380434B04468846D3F8000400F00F00DC
:100DA000884207D283F80084D3F8000400F00F00D3
:100DB000404571D12068810711D5410742BF99682C
:100DC00041F4E0519960010742BF996841F46041E4
:100DD00099609968A26821F0F00111439960C007F9
:100DE0002AD06068811E022903D21968890109D4BA
:100DF00052E0012803D11968890303D44CE0196833
:100E0000890749D599681D4621F003010843986078
:100E1000FFF71CFF064641F28837A86861682B4639
:100E200000F00C00B0EB810F06D0FFF70FFF801B26
:100E3000B842F2D9032430E0D3F8000400F00F00E8
:100E4000404507D983F80084D3F8000400F00F0070
:100E5000404521D12068410705D59968E26821F411
:100E6000E05111439960000706D59868216920F484
:100E7000604040EAC10098601C4600F02FF8A1686D
:100E8000084A0024C1F30311515CC84010490860AE
:100E90000020FFF703FF00E001242046BDE8F081B9
:100EA00000380240181C000809480A490A4A00682C
:100EB0000968C1F38221515CC84070470448054964
:100EC000054A00680968C1F34231515CC840704767
:100ED0000C00002008380240281C000810B5134CF4
:100EE000606800F00C00082804D0042814BF1048E3
:100EF000104810BD226820680023400202F03F0223
:100F00000C485CBF42F20040C0F2F4002168C1F31B
:100F10008811A0FB0101FFF753F921680222C1F3F8
:100F2000014102EB4101B0FBF1F010BD0438024079
:100F30000024F40040787D012DE9FC41002800F0F8
:100F4000058104460078AF4EC0072FD0B06800F08E
:100F50000C00042823D0B06800F00C00082802D14F
:100F6000706840021BD46768B7F5803F07D03068CF
:100F7000B7F5A02F40F00B8140F48020306030683E
:100F800040F480303060FFF761FE05463068800332
:100F90000CD4FFF75BFE401B6428F7D99DE0306856
:100FA000800303D56068002800F0D0802078800797
:100FB0002BD5B06810F00C0F07D0B06800F00C0013
:100FC000082809D17068400206D43068800715D51A
:100FD000E068012812D0B9E0E1688B4800297ED092
:100FE00001210160FFF732FE05463068800705D415
:100FF000FFF72CFE401B0228F7D96EE0306821690C
:1010000020F0F80040EAC10030602078000721D5C8
:10101000606978B17C480121C0F8801EFFF716FE98
:101020000546706F800715D4FFF710FE401B02289D
:10103000F7D952E074480021C0F8801EFFF706FE81
:101040000546706F800705D5FFF700FE401B02289C
:10105000F7D942E02078400770D5306C4FF0000897
:10106000C0000CD4CDF804804FF00108306C40F083
:1010700080503064306C00F0805001900198634FD4
:101080003868C0050FD4386840F480703860FFF7C6
:10109000DDFD05463868C00505D4FFF7D7FD401BC8
:1010A0000228F7D919E0A768012F05D0306F052F66
:1010B00025D140F004003067306F40F00100306708
:1010C000FFF7C4FD054641F28837306F80072ED404
:1010D000FFF7BCFD401BB842F7D9032037E00021E1
:1010E0000160FFF7B3FD0546306880077FF58DAFDF
:1010F000FFF7ACFD411B03200229F5D927E020F0C2
:1011000001003067306F20F004003067FFF79EFD6C
:101110000546002FD7D141F28837306F800706D5BA
:10112000FFF794FD411B0320B942F6D90FE0B8F157
:10113000000F1EBF306C20F080503064A769002F74
:101140005DD0B06800F00C00082803D1012002B087
:10115000BDE8F0812C49002088460866FFF776FD3F
:101160000546022F09D13068800128D5FFF76EFDB2
:10117000411B03200229F6D9E9E7306880013ED5FA
:10118000FFF764FD411B03200329F6D3DFE720F4BA
:1011900080303060306820F480203060FFF756FDEA
:1011A0000546002F7FF4F2AE306880037FF5FEAE77
:1011B000FFF74CFD411B03206429F5D9C7E704F173
:1011C0001C078FCF0843D90340EA82104FF6FF7205
:1011D000914340EA0760A1F5803108437060012027
:1011E000C8F86000FFF732FD04463068800106D47D
:1011F000FFF72CFD011B03200229F6D9A7E70020E9
:10120000A5E700BF003802400000474200700040E0
:10121000411E0020B0EB116F1CBF01207047044A33
:10122000F023516003490B700721906011607047F3
:1012300010E000E023ED00E0704750B310B5044625
:1012400090F8390028B9002084F83800204600F0D2
:1012500023F8242084F839002068C16821F4005163
:10126000C160204600F0D6FA2068016921F490415F
:101270000161416921F02A014161C16841F40051D5
:10128000C16000202021E06384F8391084F83A100E
:1012900010BD0120704700002DE9F04F87B00446D3
:1012A00002A81421FEF7C4FF2068E24FB8425DD1C6
:1012B0000026D2484FF008084FF003094FF0010A0A
:1012C0004FF0020B02AD0196016941F480110161FA
:1012D000016901F48011019101990196016841F0C1
:1012E00004010160016801F0040101910199019676
:1012F000016841F0080101602946006800F008001B
:1013000001900198CDF81880CDF81490CDF810A078
:10131000CDF80CB04FF48050029007F5DC30FFF7A9
:10132000C3FB0420CDE90598CDE903BA2946029014
:1013300007F5DE30FFF7B8FB0E4D4FF440300E4A94
:101340004FF00061C5E908064FF48060C5E900214F
:10135000C5E90266C5E904062846C5E90666FFF741
:10136000D9FA08B1FEF7EEFF6563AC6307B0BDE8DC
:10137000F08F00BF6C00002010600240BCB5054635
:1013800090F83A00202807D113460A4631B12BB114
:1013900095F83800012803D102242DE001242BE028
:1013A000002401201649DFF85CC0EC63AB85AA621B
:1013B00085F83800222085F83A00686BC0E91314DC
:1013C0001149C0E90F1C29680431FFF737FB01946C
:1013D00028680168019141680191019985F83840B8
:1013E000C16841F48071C160416941F0010141610E
:1013F000416941F040014161204602B0B0BD00BFEB
:1014000069170008F3170008BD170008006889492C
:10141000884218BF7047864801490122FFF7AEBFD6
:101420001800002070472DE9F041044690F839007B
:1014300020280AD10E460120002949D01746002A4B
:1014400046D094F83800012802D10220BDE8F0818E
:1014500000201D46E063012084F83800212084F834
:101460003900FFF7F3FB8046E784A7841DE0E08C9A
:10147000802142462B460138E0842046A76800F0D0
:1014800087FAB7F5805F0BD1C8B9318820686FF350
:101490005F2141602069002814BF0136023604E054
:1014A00068B9206816F8011B4160E08C0028DED185
:1014B0002046402142462B4600F06AFA10B1032034
:1014C000BDE8F0810020202184F8380084F839102C
:1014D000BDE8F081FEE70000BFB51448144A154B83
:1014E00000244FF480310125C46280F82040047646
:1014F000836280F83040C561C0E90021C0E9024440
:10150000C0E90445CDE90244CDE90044FEF7B6FF49
:1015100008B1FEF717FF054869460294CDE900556A
:10152000FEF730FF08B1FEF70DFFBFBD240000201D
:10153000002001400100000FE0B5002000220190D2
:101540002E48016841F4001101600021006800F498
:101550000010019001980B20FFF7E8FB0B20BDE87D
:101560008C40FFF7D5BB00BF70B586B0002523487F
:101570003B4C0022082605950095016841F00401C6
:101580000160016801F00401009100990095016873
:1015900041F080010160016801F080010091009933
:1015A0000095016841F001010160016801F001014D
:1015B000009100990095016841F0400101600168C7
:1015C00001F04001009100990095016841F0080187
:1015D00001600821006800F0080000900098204693
:1015E000FFF72FFB0120CDE9035501A9CDE90160EB
:1015F0002046FFF759FA06B070BD00BF30380240F0
:1016000010B50B480B4C4FF4E13300210C22C0E91C
:101610000043C0E90211C0E90412C0E90611FFF756
:101620000CFE002814BFBDE8104010BDFEF78ABEB6
:10163000CC00002000500040FEE770477047704724
:1016400006480168002902DB0139016070474FF448
:101650007A71016002480821FFF7ECBA14000020FB
:101660000018024080B5FFF7EBFFFFF7F3FABDE883
:10167000804000F06BB8000070B592B006AC142149
:10168000201DFEF7D5FD00251B48022601950168A7
:1016900041F080510160006800F080500190019895
:1016A00001951648016841F480410160006800F42A
:1016B00080400190019804201190A82010960F906E
:1016C00008200E901020CDE90C650A9001200990A9
:1016D00020460696FFF730FC4FF480500521059018
:1016E0004FF4A05004900F20CDE90265019001A8AD
:1016F000FFF74AFB12B070BD403802400070004056
:1017000010B50E480F4CD0F8801041F47001C0F8AD
:1017100080100B490A6842F001020A6000228A60C8
:101720000B6823400B60084B4B600B6823F480234D
:101730000B60CA604FF00061016010BD08ED00E071
:1017400000380240FFFFF6FE103000240548016813
:1017500001390160C8BF7047AC4901220A700A21F3
:10176000016070471000002010B5846B206841694B
:1017700094F83920212A0BD111F0800108D00021E2
:10178000E184C16821F0C001C160202184F83910D2
:10179000406994F83A10222907D110F0400004D093
:1017A0000020E085204600F027F8E06B40F01000B4
:1017B000E0632046BDE81040FFF73EBD0168806B46
:1017C0000968C90548BFFFF721BE0021C18501682E
:1017D000CA6822F48072CA604A6922F001024A6132
:1017E0004A6922F040024A61202180F83A10FFF74E
:1017F0000DBE806BFFF716BE0168CA6822F49072B6
:10180000CA604A6922F001024A61202180F83A1038
:10181000704700002DE9F0470446006849F20C6566
:101820000169E26821F4405111430161A168D4E9E2
:101830000423E769C6681143AE43B7F5004F41EA98
:10184000030141EA070141EA0601C1604169A26959
:1018500021F4407141EA020141614A4940F480604B
:101860003FD188420CBFDFF820A1DFF820A1D0478C
:10187000D4F804908046D04767680646D047616830
:1018800019257F00684306FB05F34900B3FBF7F316
:10189000B0FBF1F06421B0FBF1F202FB1102181A67
:1018A0004FEA49031044322202EBC0004FF4F872B1
:1018B000B0FBF1F002EA400008FB05F2B2FBF3F2E4
:1018C000B2FBF1F100EB0116D047616868434900B3
:1018D000B0FBF1F7D0476168684307220323490052
:1018E0003CE0884214BFDFF8A4A0DFF89CA0D047FA
:1018F000D4F804908046D04767680646D0476168B0
:101900001925BF00684306FB05F38900B3FBF7F315
:10191000B0FBF1F06421B0FBF1F202FB1102181AE6
:101920004FEA89031044322202EB001008FB05F253
:10193000B0FBF1F0B2FBF3F200F0F000B2FBF1F11A
:1019400000EB0116D047616868438900B0FBF1F7EE
:10195000D047616868430F2204238900B0FBF1F08F
:10196000391A6427B0FBF7F505FB17000844216816
:1019700098403230B0FBF7F0104030438860BDE84B
:10198000F08700BF00140140BD0E0008A90E00083A
:101990002DE9F0411D4690460F4604465E1C206826
:1019A00001683940B94204BF0020BDE8F081002E33
:1019B000F5D035B1FFF74AF9A0EB0800A842EED9FF
:1019C0002068C16821F4D071C160416921F0010132
:1019D00041612020002184F8390084F8381084F80F
:1019E0003A000320BDE8F081FEE7000010B5074C87
:1019F0002078012818BF10BD0548017831294170B1
:101A000008BFFEF7A1FC0020207010BD20000020C0
:101A10001800002010B5074C00F00F03044AB0F185
:101A2000FF3F2344C8BF83180801187010BD00BFD2
:101A300000E400E014ED00E01CB504468DF807005A
:101A40000E480DF1070101220A23FFF7ECFC2046A6
:101A500002B010BDFFF708F9FFF70EFEFFF784FD97
:101A6000FFF76AFDFFF738FDFFF7CAFD0348044999
:101A70000122FFF783FCFFF7B9FFFCE7CC00002051
:101A8000180000200FB4054B10B503A9044A0298B2
:101A900000F018F810BC5DF814FB0000391A0008BB
:101AA0000000002002E008C8121F08C1002AFAD175
:101AB00070477047002001E001C1121F002AFBD1CE
:101AC000704700002DE9FF4F89B09B460446002572
:101AD00006E025280BD05A460B999047641C6D1CD4
:101AE00020780028F5D10DB02846BDE8F08F0027FA
:101AF000B8460122474900E0074314F8013F203B64
:101B000002FA03F00842F7D120782E2819D114F8F0
:101B1000010F47F004072A280ED06FF02F0220781B
:101B2000A0F1300109290CD808EB880102EB410132
:101B300000EB0108641CF2E70A98641C50F8048B5F
:101B40000A9020780028CED0642808D0692806D0D2
:101B500075281ED05A460B9990476D1C58E00A997B
:101B60004FF00A0901C90A91002802DA40422D21EA
:101B700002E0390504D52B218DF82010012103E066
:101B8000F90704D02021F7E78A4608AE0DE00021CE
:101B9000FAE70A994FF00A0901C90A91F7E749469D
:101BA000FEF751FB303106F8011D0028F7D1ADEBEF
:101BB000060000F12009780701D44FF00108C8455C
:101BC00002DDA8EB090000E000208046002706E0C7
:101BD00008A85A46C05D0B9990476D1C7F1C57455D
:101BE000F6DB04E030205A460B9990476D1CB8F1A3
:101BF0000001A8F10108F5DC05E016F8010B5A46D2
:101C00000B9990476D1CB9F10001A9F10109F4DCB1
:101C1000641C65E7092801000000000000000000C6
:101C20000102030406070809000000000102030482
:101C3000501C00080000002018000000A41A000832
:101C4000681C000818000020F8040000B41A0008FE
:101C50000000000001000000100000000024F4005B
:081C600014000000E80300007D
:040000050800018965
:00000001FF
